:020000040800F2
:1000000078140020050100080D0100080F01000808
:10001000110100081301000815010008000000008C
:1000200000000000000000000000000017010008B0
:1000300019010008000000001B010008C913000896
:100040001F0100081F0100081F0100081F01000810
:100050001F0100081F0100081F0100081F01000800
:100060001F0100081F0100081F0100081F010008F0
:100070001F0100081F0100081F0100081F010008E0
:100080001F0100081F0100081F0100081F010008D0
:100090001F0100081F0100081F0100081F010008C0
:1000A0001F0100081F0100081F0100081F010008B0
:1000B000C5140008E1140008691500081F010008B4
:1000C0001F0100081F0100081F0100081F01000890
:1000D0001F010008E51600086D170008F517000855
:1000E0001F0100081F0100081F010008DFF810D0E1
:1000F00000F05EFB00480047052B0008AFF30080CE
:10010000781400200648804706480047FEE7FEE7CF
:10011000FEE7FEE7FEE7FEE7FEE7FEE7FEE7FEE7B7
:1001200065140008ED0000082DE9FE4399461546C8
:100130008846074601AC022942D3002D40D000205A
:100140000290A8F101004FF0FF36009022E000FB82
:10015000057201FB057011464A469047002805DCF0
:1001600054F82600304444F8260013E060682A461C
:1001700000FB057154F8040C00FB057007E00B78D8
:1001800090F800C001F801CB00F8013B521E002A94
:10019000F5D1764254F8040C61688842D7DC4B46AE
:1001A0002A463846FFF7C0FF54F8040C4B46A8EB2C
:1001B0000001401C00FB05702A46491EFFF7B4FFF2
:1001C000BDE8FE832DE9FE4F804681EA0300C00FA3
:1001D0000C46009021F0004123F00045B8EB0200EE
:1001E000A94105D24046214690461C460B46024690
:1001F00023F00040104347D0270DC7F30A00C3F394
:100200000A510290401A019040286BDAC3F31300A0
:1002100040F4801B0098924620B10023D2EB030AE1
:1002200063EB0B0B01985946C0F14002504600F0B9
:1002300082F906460D4650465946019A00F08AF961
:1002400010EB08006141002487EA115284EAE77349
:100250001A4340D0009A62B3019A012A4FEA07522A
:1002600015DC001B61EB02014FF0004202EA07526D
:10027000CDE90042001C41F5801132462B4600F0CA
:10028000C1F903B0BDE8F08F40462146F9E7001BF5
:1002900061EB0201001C41F5801300185B4120183E
:1002A000A2F5001747EB030140EAD570B6196D417E
:1002B00011E06D084FEA360645EAC0754FEA07526D
:1002C000001B61EB0201001C41F5801149084FEA57
:1002D00030000019514132462B4603B0BDE8F04FC3
:1002E00000F081B90098012240000023D0EB020207
:1002F00063EBE073009821464FEAE074B8EB00002E
:1003000061EB0401E9E783F000435BE781F0004122
:1003100058E72DE9FE4F81EA030404F0004421F080
:10032000004100944FF0000B23F0004350EA010419
:100330005ED052EA03045BD0C3F30A54C1F30A55FA
:100340002C44A4F2F3340194A0FB0254C1F3130132
:1003500041F48011C3F3130343F4801301FB0244FF
:1003600000FB034E840A970A44EA815447EA835704
:10037000A4FB076802958D0A05FB07854FEA932CBD
:1003800004FB0C542705029D4FEA065847EA16372E
:10039000B5EB08056EEB070C870E920E47EA811746
:1003A00042EA8312A7FB0201B6EB0B0164EB0004E7
:1003B0002B0D43EA0C335E1844EB1C50DA465146D1
:1003C000E7FB0201C5F313044FEA0B3343EA14536E
:1003D0004FEA0432019C43EA0603A4F10C040294A0
:1003E000009CCDE900B400F00DF903B0BDE8F08F3A
:1003F00000200146F9E70EB5C10F80EAE07008441D
:10040000CA07002140F233438DE80E000A460B462E
:1004100000F0F8F803B000BD00F0004230F00040FA
:100420000AD0C10D01F56071C0F3160042EA015116
:10043000C208400711437047002001467047000082
:1004400030B5041E71F1000404DB4FF0004440425B
:1004500064EB0101141E73F1000405DB1C464FF030
:100460000043524263EB0403994208BF904230BDFF
:1004700001F0004330B421F0004150EA010206D0FF
:100480000A0DA2F56072C1F31301002A02DC30BC30
:1004900000207047440F44EAC104C100E01830BC9A
:1004A00000EBC25000F068B830B50B4601460020A2
:1004B0002022012409E021FA02F59D4205D303FA26
:1004C00002F5491B04FA02F52844151EA2F10102A7
:1004D000F1DC30BD2DE9F05F0546002092469B46D9
:1004E00088460646814640241BE02846414647464A
:1004F000224600F06FF953465A46C01A914110D374
:1005000011461846224600F016F82D1A67EB01082E
:100510004F4622460120002100F00DF817EB00099C
:100520004E41201EA4F10104DFDC484631462A4634
:100530004346BDE8F09F202A04DB203A00FA02F18E
:10054000002070479140C2F1200320FA03F31943C1
:1005500090407047202A06DBCB17203A41FA02F080
:1005600043EAE07306E041FA02F3D040C2F1200210
:1005700091400843194670470029A8BF7047401CA6
:10058000490008BF20F00100704710B4B0FA80FCA9
:1005900000FA0CF050EA010404BF10BC704749B1E6
:1005A000CCF1200421FA04F411FA0CF118BF012156
:1005B00021430843A3EB0C01CB1D4FEA00614FEA36
:1005C000102042BF002010BC704700EBC350104405
:1005D0000029A4BF10BC7047401C490008BF20F090
:1005E000010010BC704710B5141E73F1000408DA46
:1005F000401C41F1000192185B411A4301D120F0E7
:10060000010010BD2DE9F04D92469B4611B1B1FAA3
:1006100081F202E0B0FA80F220329046FFF78BFFC1
:1006200004460F4640EA0A0041EA0B0153465A4687
:10063000084313D0114653EA010019D0C8F1400213
:10064000504600F0C7F805460E4650465946424609
:10065000FFF771FF084305D0012004E0204639462A
:10066000BDE8F08D0020054346EAE0762C43374391
:100670000A986305E40AA0EB08000022FD0A44EA98
:1006800047540A3002D500200146E9E70105101958
:100690006941DDE9084500196941BDE8F04DA2E76F
:1006A0002DE9F04D81EA030404F0004B21F00045F0
:1006B00014464FF0000A23F0004150EA050220D012
:1006C00054EA01021DD0C5F30A570246C5F31303CD
:1006D000C1F31300C1F30A5640F4801543F48013AC
:1006E000A7EB0608101BD64608F2FD3873EB050091
:1006F00002D308F1010801E092185B41B8F1000F44
:1007000003DA00200146BDE8F08D00204FF480118F
:10071000064684460EE0171B73EB050705D3121B34
:1007200063EB050306434CEA010C49084FEA30002D
:1007300092185B4150EA0107EDD152EA030012D052
:1007400082EA040083EA0501084305D0101BAB418F
:1007500006D20122002306E000224FF0004302E00F
:100760006FF0010253101AEB06004CEB085110EB2E
:100770000A0041EB0B01BDE8F04DFFF734BFC1F3B8
:100780000A52C1F3130140F2FF3341F480119A423F
:1007900002DA00200146704740F233439A42A2F247
:1007A000334202DC524200F015B8FFF7C4BE00002D
:1007B000064C074D06E0E06840F0010394E80700AE
:1007C00098471034AC42F6D3FFF794FCD02D0008C4
:1007D000F02D0008202A04DB203A21FA02F0002143
:1007E000704721FA02F3D040C2F120029140084341
:1007F0001946704770B58C1810F8015B15F00703A7
:1008000001D110F8013B2A1106D110F8012B03E0A9
:1008100010F8016B01F8016B5B1EF9D12B0705D4B1
:100820000023521E0DD401F8013BFAE710F8013BFA
:10083000CB1A921C03E013F8015B01F8015B521E16
:10084000F9D5A142D8D3002070BD00002DE9F04FAA
:100850008DB04FF00009B7E05F4830F919405F48AC
:1008600030F91900002858DA604204B20A2094FBDB
:10087000F0F100FB11473846FFF7BDFD0546584A29
:10088000584BFFF746FDCDE90801642094FBF0F1D9
:1008900000FB11400A2190FBF1F73846FFF7ABFD52
:1008A0000546514A514BFFF734FDCDE904014FF4A1
:1008B0007A7094FBF0F100FB1140642190FBF1FA97
:1008C0005046FFF798FD4A4A4A4BCDE90001FFF731
:1008D00020FD05460E464FF47A7094FBF0FA504620
:1008E000FFF789FD07462A463346FFF76BFCCDE943
:1008F0000201DDE90423FFF765FCCDE90601DDE92E
:100900000823FFF75FFC81F00041CDE90A01FFF702
:10091000AFFD394941F8290052E00A2094FBF0F17B
:1009200000FB11473846FFF766FD05462C4A2D4B64
:10093000FFF7EFFCCDE90801642094FBF0F100FB28
:1009400011400A2190FBF1F73846FFF754FD0546A8
:10095000254A264BFFF7DDFCCDE904014FF47A7000
:1009600094FBF0F100FB1140642190FBF1F0019049
:10097000FFF741FD05461E4A1E4BFFF7CAFC07461E
:1009800088464FF47A7094FBF0F52846FFF733FD64
:100990003A464346CDE90201FFF714FC8246DDE901
:1009A0000423FFF70FFCCDE90601DDE90823FFF77B
:1009B00009FCCDE90A01FFF75BFD0F4941F8290069
:1009C00009F101000FFA80F9B9F1080FFFF644AF01
:1009D0000DB0BDE8F08F0000120C0020220C0020AA
:1009E000FCA9F1D24D62503F7B14AE47E17A843FBF
:1009F0009A9999999999B93FB401002010B50023AB
:100A000015E0184600F08EFA0A4921F8130008464E
:100A100030F9134041F28830604347F6FF7190FB94
:100A2000F1F000B2044921F81300581CC3B2082B9E
:100A3000E7DB10BD220C0020120C002021B18268DF
:100A400042F00102826003E0826822F001028260CB
:100A50007047000010B504461248844208D10121B5
:100A6000401500F08BFB0021601500F087FB17E0BC
:100A70000D48844208D10121001500F07FFB0021C0
:100A8000201500F07BFB0BE00848844208D10121CF
:100A9000C80300F073FB00214FF4004000F06EFB30
:100AA00010BD00000024014000280140003C01402E
:100AB000014600208A6802F004020AB1012000E029
:100AC00000207047014600208A6802F008020AB13F
:100AD000012000E00020704730B5024600200023CE
:100AE00050680F4C20400D790C6844EA05242043DF
:100AF000506090680B4C2040D1E902542C434D7952
:100B000044EA450420439060D06A20F470000C7CD5
:100B1000641EE4B2234340EA0350D06230BD0000BB
:100B2000FFFEF0FFFDF7F1FF816841F008018160F1
:100B30007047816841F004018160704700B587B05B
:100B400001214FF4017000F009FB4FF4004000F068
:100B5000D9FA0320ADF8040000208DF8070001A9A0
:100B6000174800F0EDF81748FFF774FF00200290D7
:100B70008DF80C008DF80D004FF4602004900020DB
:100B8000059001208DF8180002A90E48FFF7A4FF78
:100B900001210C48FFF752FF0A48FFF7C5FF00BFCD
:100BA0000848FFF78FFF0028FAD10648FFF7C1FF7A
:100BB00000BF0448FFF77CFF0028FAD107B000BD52
:100BC000000801400024014010B5044600F0FEF981
:100BD0001D4801780078401C1B4A10701B48445483
:100BE0000078552803D000201146087010BD164823
:100BF00000780B2800DAF9E714484078512804D02F
:100C000052280AD0532818D10FE011480F49891CE7
:100C10000A680260496841600FE00E480B49891C70
:100C20000A6802604968416007E00B480749891C6F
:100C30000A6802604968416000BF00BF00200249A5
:100C4000087000BFD2E700008C0100205003002094
:100C500010000020200000203000002010B50446C5
:100C600000F0B4F91D4801780078401C1B4A107050
:100C70001B4844540078552803D0002011460870C2
:100C800010BD164800780B2800DAF9E714484078C0
:100C9000512804D052280AD0532818D10FE0114807
:100CA0000F49891C0A680260496841600FE00E48DC
:100CB0000B49891C0A6802604968416007E00B48DB
:100CC0000749891C0A6802604968416000BF00BF8B
:100CD00000200249087000BFD2E700008D0100200B
:100CE0004A040020180000202800002038000020BE
:100CF000F8B507460C4615461E460121042000F0B3
:100D00000DFA0121082000F009FA0121102000F05D
:100D100005FA0121202000F001FA0121802000F0D5
:100D2000FDF9684600F0F6F88DF803508DF8026082
:100D3000A0B2ADF800006946384600F001F8F8BDF1
:100D40002DE9F04102460025002600200023002462
:100D5000002791F803C00CF00F0591F803C00CF0C8
:100D6000100CBCF1000F03D091F802C04CEA05054D
:100D700091F800C0BCF1000F31D0146800202BE0C6
:100D80004FF0010C0CFA00F3B1F800C00CEA0306B6
:100D90009E4220D183004FF00F0C0CFA03F7BC43A6
:100DA00005FA03FC4CEA040491F803C0BCF1280FD7
:100DB00006D14FF0010C0CFA00FCC2F814C00AE096
:100DC00091F803C0BCF1480F05D14FF0010C0CFAAB
:100DD00000FCC2F810C0401C0828D1D31460B1F840
:100DE00000C0BCF1FF0F34DD546800202EE000F19C
:100DF000080C4FF0010808FA0CF3B1F800C00CEA37
:100E000003069E4221D183004FF00F0C0CFA03F72A
:100E1000BC4305FA03FC4CEA040491F803C0BCF19E
:100E2000280F05D100F1080C08FA0CF8C2F814805C
:100E300091F803C0BCF1480F07D100F1080C4FF046
:100E4000010808FA0CF8C2F81080401C0828CED31C
:100E50005460BDE8F0810000F0B50A46002300248C
:100E60000021002500F00046B6F1004F02D11D4ED2
:100E7000F16901E01B4E7168C0F3034583B200F4D1
:100E80004016B6F5401F08D121F07061154E766806
:100E900026F07066134F7E6012E000F48016B6F5FF
:100EA000801F06D1032606FA05F4A14341F07061C4
:100EB00006E0460D360103FA06F6B14341F07061D3
:100EC00022B1460D360103FA06F6314300F0004622
:100ED000B6F1004F02D1034EF16101E0014E7160A5
:100EE000F0BD0000000001400246002093680B4066
:100EF0000BB1012000E00020704702460020D368BB
:100F00000B400BB1012000E00020704741617047A9
:100F1000016170474FF6FF71018002218170042149
:100F2000C17070470146012080F3108800BF04485B
:100F300030F91120002080F3108800BF1046704760
:100F4000320C002008B501210C2000F007F94FF405
:100F5000C050ADF8000010208DF8030003208DF87C
:100F6000020069460848FFF7EBFE4FF48070ADF8C9
:100F7000000028208DF8030003208DF80200694648
:100F80000248FFF7DDFE08BD00080140000C0140EB
:100F900010B50121084600F0E1F801210848FFF7EB
:100FA0005BFF0121042000F0B9F801231022D102D7
:100FB0000448FFF79DFE01200349087010BD0000A2
:100FC00000023000000801409C01002010B50B48D1
:100FD000007808B9FFF7DCFF4FF400410848FFF73D
:100FE0008CFF28B14FF400410548FFF78FFF04E064
:100FF0004FF400410248FFF78BFF10BD9C01002019
:101000000008014070B5002100230F22C47804B30A
:10101000154C246804F4E064C4F5E064210AC1F1CD
:101020000403CA40447804FA03F18478144021434D
:1010300009010E4C0678A155047804F01F0501241F
:10104000AC4005786D11AD0005F1E025C5F8004113
:1010500009E0047804F01F050124AC40044D067833
:10106000761145F8264070BD0CED00E000E400E08C
:1010700080E100E002490143024A1160704700002C
:101080000000FA050CED00E010B5FFF7B7FCFFF724
:10109000DDFB0020174908600EE017481549096874
:1010A00050F821001549134A126841F822001148EE
:1010B0000068401C0F4908600E4800680828ECDBF7
:1010C00000200C49086010E00C490A4A126851F8E7
:1010D000220000F0B3FC0A49064A126841F82200D7
:1010E00004480068401C034908600248006808285A
:1010F000EADB10BD50000020B4010020F401002004
:10110000D002002001460020034A506820F44040ED
:1011100008435060704700000010024029B1064AA1
:1011200052690243044B5A6104E0034A5269824304
:10113000014B5A61704700000010024029B1064A75
:10114000D2690243044BDA6104E0034AD269824364
:10115000014BDA61704700000010024029B1064AD5
:1011600092690243044B9A6104E0034A9269824304
:10117000014B9A61704700000010024029B1064AF5
:10118000D2680243044BDA6004E0034AD268824327
:10119000014BDA60704700000010024030B50021BA
:1011A0000022002400232D4D6D6805F00C0121B1B3
:1011B000042905D0082923D105E0294D056022E046
:1011C000274D05601FE0254D6D6805F47012234D15
:1011D0006D6805F48034022505EB92421CB9214D5F
:1011E000554305600BE01D4D6D6805F400351DB1DC
:1011F0001C4D5543056002E0194D5543056002E062
:10120000174D056000BF00BF144D6D6805F0F0017B
:101210000909154D6B5C0568DD4045600F4D6D6833
:1012200005F4E061090A104D6B5C4568DD4085609E
:101230000A4D6D6805F46051C90A0B4D6B5C456839
:10124000DD40C560054D6D6805F44041890B074DD3
:101250006B5CC568B5FBF3F5056130BD001002405D
:1012600000127A0000093D009F010020AF0100201C
:1012700021B1028842F04002028004E002884FF669
:10128000BF731A40028070470246002013890B404A
:101290000BB1012000E000207047014688897047AB
:1012A0008181704710B50022028802F441520B88F8
:1012B0004C8823438C882343CC8823430C892343C5
:1012C0004C8923438C892343CC8923431A430280CE
:1012D000838B4FF2FF74234083830B8A038210BDFC
:1012E00010B500F001F810BD0CB500200190009081
:1012F0003348006840F480303149086000BF30480E
:10130000006800F4003000900198401C01900098A3
:1013100018B90198B0F5A06FF1D12948006800F420
:10132000003010B10120009001E0002000900098F2
:10133000012843D12348006840F01000214908608B
:101340000846006820F0030008600846006840F086
:10135000020008601A484068194948600846406819
:1013600048600846406840F480604860084640682D
:1013700020F47C1048600846406840F4E81048605B
:101380000846006840F08070086000BF0C480068A4
:1013900000F000700028F9D00948406820F00300F0
:1013A000074948600846406840F00200486000BFB6
:1013B0000348406800F00C000828F9D10CBD00007B
:1013C0000010024000200240012005490870054835
:1013D000007820B103480078401E02490870704729
:1013E000920100209301002038B504460D460020EC
:1013F0004FF0E021886105FB04F000EB4001C1EBF8
:10140000C0104FF0E021486103200861E11704EBB0
:101410005171C1F3C701114A11701046007800EBF9
:101420004001C1EBC0104FF6FF7101EAC0000C494A
:1014300008804FF4C060FFF71DFEFF208DF800000C
:1014400003208DF8010000208DF8020001208DF8A6
:1014500003006846FFF7D6FD38BD00008E0100206E
:101460009001002010B51348006840F001001149B8
:10147000086008464068104908400E494860084620
:1014800000680E4908400B4908600846006820F4CF
:10149000802008600846406820F4FE0048604FF451
:1014A0001F008860FFF71CFF4FF0006004490860D0
:1014B00010BD0000001002400000FFF8FFFFF6FE24
:1014C00008ED00E010B50121880700F09FF828B171
:1014D00001F05AF80121880700F089F810BD0000DA
:1014E00010B50121064800F091F840B105480068A8
:1014F000401C044908600121014800F078F810BD43
:1015000000040040540000207FB505460C46012130
:101510000220FFF713FEADF80850ADF8044000209C
:10152000ADF80A00ADF8060001A90E4800F088F8F1
:10153000012211460B4800F07AF81D208DF80000BA
:1015400000208DF8010003208DF8020001208DF8A5
:1015500003006846FFF756FD0121024800F04AF8F3
:101560007FBD00000004004010B50121054800F0D7
:101570004DF828B101F05EF80121024800F037F87B
:1015800010BD0000000800407FB505460C46012153
:101590000420FFF7D3FDADF80850ADF8044000205B
:1015A000ADF80A00ADF8060001A90E4800F048F8B1
:1015B000012211460B4800F03AF81E208DF8000079
:1015C00001208DF8010003208DF8020001208DF824
:1015D00003006846FFF716FD0121024800F00AF8F3
:1015E0007FBD000000080040CA4302827047CA4322
:1015F0000282704721B1028842F00102028004E0B9
:1016000002884FF6FE731A400280704730B50246DA
:10161000002000230024158A05EA0103958905EAC4
:10162000010413B10CB1012000E0002030BD1AB15B
:1016300083890B43838102E083898B4383817047D5
:10164000002202881D4B98420ED01D4B98420BD0B1
:10165000B0F1804F08D01B4B984205D01A4B9842EE
:1016600002D01A4B984204D14FF68F731A404B8820
:101670001A43174B984207D0164B984204D04FF6A6
:10168000FF431A40CB881A4302808B8883850B88DE
:1016900003850A4B98420BD0094B984208D00E4B59
:1016A000984205D00D4B984202D00D4B984201D183
:1016B0000B7A03860123838270470000002C0140CF
:1016C000003401400004004000080040000C0040CD
:1016D0000010004000140040004001400044014060
:1016E0000048014010B540F225511D4800F0E1F8D6
:1016F00010B31B4800F098F9C4B21A48008800F4EF
:101700000040C8B91748008800F4804060B10A2C36
:1017100003D000201349088020E01248008840F4DC
:1017200000401049088019E00D2C06D10D480088B2
:1017300040F480400B49088010E00A480088C0F35C
:101740000D0009490C5407480088401C05490880D1
:1017500008460088C72801DD0020088010BD000071
:1017600000380140980100204405002010B540F2E7
:1017700027711C4800F09DF8E0B11B480278007802
:10178000401C194B18701948815C164800F051F93B
:1017900040F22771134800F071F81348007814499B
:1017A0000978884217D1002240F227710D4800F0D5
:1017B000AAF810E040F225510A4800F07AF850B13A
:1017C0000849091D0988C8B2FFF7FEF940F2255102
:1017D000044800F053F84FF45871024800F04EF8F6
:1017E00010BD0000004400409A0100200C060020BB
:1017F0009B01002010B540F227711C4800F059F8F9
:10180000E0B11B4802780078401C194B1870194849
:10181000815C164800F00DF940F22771134800F082
:101820002DF81348007814490978884217D100220E
:1018300040F227710D4800F066F810E040F22551A3
:101840000A4800F036F850B10849091D0988C8B2A5
:10185000FFF704FA40F22551044800F00FF84FF466
:101860005871024800F00AF810BD0000004800401E
:101870009D0100200C0700209E01002010B50022D1
:10188000002340F66A14A14200D100BF0A120124CD
:101890009440A3B2DC43048010BD21B1828942F49C
:1018A0000052828104E082894DF6FF731A408281E2
:1018B000704770B50246002400230025002040F642
:1018C0006A16B14200D100BFC1F3421501F01F03F7
:1018D000012606FA03F3012D02D19689334006E072
:1018E000022D02D1168A334001E0968A33400C1251
:1018F000012606FA04F41688344013B10CB1012015
:1019000000E0002070BDF0B503460024002600254D
:10191000002040F66A17B94200D100BF1846C1F353
:10192000421401F01F06012707FA06F5012C01D128
:101930000C3004E0022C01D1103000E014301AB158
:1019400007682F43076002E00768AF430760F0BDF8
:101950002DE9F04786B005460E460024A24600BF9A
:10196000A1460027B08900B100BF2F462C8A4CF653
:10197000FF700440F08804432C82AC894EF6F310CB
:101980000440B08831890843718908430443AC811D
:10199000AC8A4FF6FF400440B0890443AC8201A8F2
:1019A000FFF7FCFB1F48874202D1DDF810A001E0E1
:1019B000DDF80CA0A88900F4004040B10AEBCA0091
:1019C00000EB0A1031684900B0FBF1F807E00AEBC0
:1019D000CA0000EB0A1031688900B0FBF1F86420FE
:1019E000B8FBF0F004012009642101FB1089A889EB
:1019F00000F4004040B1322000EBC900B0FBF1F030
:101A000000F00700044308E0322000EB09106421D5
:101A1000B0FBF1F000F00F0004432C8106B0BDE8EC
:101A2000F08700000038014001468888C0F30800B4
:101A30007047C1F308028280704700002DE9F05F13
:101A400082465046FEF7E8FC80460022074BFEF730
:101A50005AFC06460022064BFEF75BFC0446FEF7E6
:101A600007FD83465846BDE8F09F00000000044093
:101A7000000049400FB4054B10B503A9044A029871
:101A800000F0DAF810BC5DF814FB0000B52900087E
:101A90009401002002E008C8121F08C1002AFAD1F0
:101AA00070477047002001E001C1121F002AFBD1DE
:101AB000704700002DE9FF5F82B00021DDE90430AE
:101AC000020DDDF840B0034318D044F61050A2F2E6
:101AD000FF3242431514119801281FD0A5EB0B00CB
:101AE000401C5FEA000A4FF000064E4FDFF83891C5
:101AF000B046504615D5CAF1000413E011980124F0
:101B00004AA3012801D16FEA0B010298119AC0E99A
:101B10000031C0E9024206B0BDE8F09FCBF1000001
:101B2000DFE704460021404A491842EB0450CDE962
:101B3000001012E0E00707D032463B4640464946D7
:101B4000FEF7E7FB8046894632463B46104619467B
:101B5000FEF7DFFB06460F466410002CEAD1DDE9F4
:101B60000401DDE90023BAF1000F06DAFEF7D1FB2C
:101B700042464B46FEF7CDFB05E0FEF791FD42469F
:101B80004B46FEF78DFD04460E460022284BFEF71D
:101B900057FC03D84FF0FF30014607E00022254BE9
:101BA00020463146FEF70EFBFEF7E9FD102409E062
:101BB000002C0ADB0A220023FEF78CFC039B303248
:101BC0001A55641E50EA0102F2D1641C039AC4F152
:101BD00011031444119A012A03D0012208430DD1A4
:101BE0000AE0084304D000204FF0110B119072E777
:101BF000A3EB0B056D1E0DE05B4504DD4FF000020D
:101C000005F1010504E003DA4FF00002A5F101053A
:101C1000002AECD002981199C0E90231C0E90045D0
:101C200079E70000000014400000F03F30000000A1
:101C30000000F0430000E03F2DE9FF4F95B09A46C9
:101C4000884606460025EEE1252877D10024274660
:101C5000F94A0121039400E0044316F8013F203BB8
:101C600001FA03F01042F7D130782A2811D06FF032
:101C70002F033078A0F13002092A16D8039A44F0D5
:101C8000020402EB820203EB42021044761C039032
:101C9000EFE758F8042B0392002A03DA504244F489
:101CA0000054039044F00204761C30782E2816D19C
:101CB00016F8010F44F004042A280DD06FF02F020B
:101CC0003078A0F13003092B09D807EB870302EB2A
:101CD0004303C718761CF3E758F8047B761C30786A
:101CE0006C280FD006DC4C2817D068280DD06A2845
:101CF00014D104E0742810D07A280FD10DE044F4F8
:101D000000140AE044F4801401E044F440147278B2
:101D1000824202D104F58014761C761C3078662845
:101D20000BD013DC582877D009DC002875D0452863
:101D3000F6D04628F4D047281AD193E118E063285A
:101D400035D0642879D0652812D18BE1702873D002
:101D500008DC6728F1D069286FD06E280DD06F2875
:101D600006D1ACE073282CD0752874D0782853D0D5
:101D70005246179990476D1C54E1C4F30250022853
:101D800009D003280DD0D8F8001004280DD00D601C
:101D900008F1040846E1D8F80010EA17C1E900523A
:101DA000F6E7D8F800100D80F2E70D70F0E718F8AC
:101DB000041B8DF8001000208DF80100EB46012077
:101DC00003E058F804BB4FF0FF3061074FF000010B
:101DD00002D40DE009F101018946B9420FDA8145CB
:101DE000F8DB1BF809100029F4D108E009F1010122
:101DF00089468142FADB1BF809100029F6D10398C5
:101E00005346A0EB090721463846179A00F080FA9E
:101E1000284400EB090507E044E008E10DE01BF869
:101E2000010B524617999047B9F10109F7D2534671
:101E300021463846179AF2E039E00A21C4F30252EB
:101E40004FF0000B0091022A06D058F8040BC1177E
:101E5000032A09D00AE023E008F1070020F0070276
:101E6000F2E80201904605E000B2C117042A01D150
:101E700040B2C117002906DA0A460021404261EB50
:101E800002012D2202E0220504D52B228DF8042028
:101E9000012203E0E20701D02022F7E7914657E054
:101EA0000A2100E010214FF0000B00910BE01021FF
:101EB0004FF0000B44F004040827009103E00820D1
:101EC0004FF0000B0090C4F30252022A05D058F8DC
:101ED000040B0021032A08D008E008F1070020F0D5
:101EE0000702F2E80201904603E080B2042A00D122
:101EF000C0B24FF0000922072AD53278702A07D0E5
:101F0000DDF800C08CF0100C5CEA0B0C05D00EE084
:101F100040228DF80420012208E050EA010306D097
:101F200030238DF804308DF8052002229146009B65
:101F300083F0080353EA0B030AD150EA010201D1EE
:101F4000620705D530228DF804204FF001097F1E6D
:101F50003278582A04D039A20C920CAA02920BE0D3
:101F60003BA2F9E75B46009AFEF7B4FA0C9B9B5C38
:101F7000029A521E0292137050EA0102F2D10298A4
:101F800004A9081A00F1200B600702D524F480345C
:101F900000E001275F4502DDA7EB0B0000E0002019
:101FA00000EB0B01009003984944401A0390E003B2
:101FB00006D453462146179A039800F0A9F9054420
:101FC000002706E001A85246C05D179990476D1C96
:101FD0007F1C4F45F6DBE0030CD553462146179A8C
:101FE000039800F095F9054404E030205246179913
:101FF00090476D1C0099481E00900029F5DC08E010
:102000000298029952460078491C0291179990470C
:102010006D1CBBF10001ABF1010BF1DC5BE100F0E9
:1020200065F90544761C307800287FF40DAE19B0B0
:102030002846BDE8F08F0000092801003031323316
:1020400034353637383961626364656600000000F4
:1020500030313233343536373839414243444546DE
:1020600000000000600700D4062708F1070020F0F8
:102070000700F0E80223804603F0004C5FEA0C0002
:1020800001D097A009E0200501D596A005E0E00762
:1020900001D095A001E0AFF24C001390307823F00E
:1020A000004365280CD006DC452809D046281DD001
:1020B00047287FD13BE0662818D067287AD136E0E0
:1020C0000021112F01DB112000E0781CCDE9000177
:1020D00004A90CA8FFF7EEFCDDE90D010C9A4FF006
:1020E000000B07F10109109200914EE04FF0004003
:1020F0000097CDE9011004A90CA8FFF7DBFCDDE98E
:102100000D020C9B0F994FF0000B9146109300921B
:1021100011B9791C00EB0109B7EB090003D4C0F138
:10212000FF3B07F10109A9EB0700019042E0012FF5
:1021300000DA01270021112F01DD112000E03846CF
:10214000CDE9000104A90CA8FFF7B4FCDDE90D01FD
:102150000C9A00914FF0000BB946109221070FD452
:10216000009A4A4503DA914601E0A9F10109B9F163
:10217000010F05DD109AA9F10101515C3029F4D05D
:10218000B84202DA10F1040F03DA0121CDE901109F
:1021900010E0002803DC8344A9EB000102E0411CAD
:1021A000494500DD8946A0EB0B00401C01904FF033
:1021B00000400290200705D40198484502DB4FF00B
:1021C000FF30019000208DF84B0002980DF14B0775
:1021D000B0F1004F25D002200C902B200D900298DA
:1021E00000280CDA404202902D200D9007E00A21D1
:1021F0000298FEF759F93031029007F8011D0C9949
:10220000481E0C900029F2DC02980028EFD1791EBC
:102210000D980870307800F0200040F0450007F875
:10222000020D11A8C01BC01D02901398007800B1C8
:10223000012000EB0901019801EBE07102980144D3
:102240000398401A401E0390E00306D453462146EB
:10225000179A039800F05CF805441398007818B1B9
:102260005246179990476D1CE00323D553462146EB
:10227000179A039800F04CF805441BE0BBF1000FDF
:1022800007DB0098584504DD1098179910F80B00EB
:1022900001E0179930205246904701980BF1010B4D
:1022A000401E05F10105019004D12E2052461799D8
:1022B00090476D1CB9F10001A9F10109DEDC05E0D0
:1022C00017F8010B5246179990476D1C0299481E4A
:1022D00002900029F4DC53462146179A03989EE6A3
:1022E0002D0000002B000000200000002DE9F0412F
:1022F000044600251E461746880404D405E03946E6
:102300002020B0476D1C641EF9D52846BDE8F08139
:102310002DE9F041044600251E469046C80301D52C
:10232000302700E02027880404D505E041463846E0
:10233000B0476D1C641EF9D52846BDE8F081000049
:102340002DE9F04186B004460020039004900590EA
:102350000025009001900290864908600DE08548B4
:10236000006854F8200003A9824A126841F822004C
:1023700080480068401C7F4908607E480068032848
:10238000EDDB7D4B042203212046FDF7CDFE00202E
:10239000784908601DE0002513E07648006854F88D
:1023A000200003A951F82510884209D17149096814
:1023B0004DF821506FF0004003A941F8250002E0DC
:1023C0006D1C032DE9DB00BF6A480068401C6949A9
:1023D0000860684800680328DDDB00206549086064
:1023E0006BE06448006854F8200000282BDA61494B
:1023F00009685DF82100614911F8200008300121C9
:1024000001FA00F05E490988084300B25C4908807F
:10241000584909685DF82100584911F82010012039
:10242000884057490988814308B2554908800020EF
:10243000504A12685DF82210504A52F82110514A51
:1024400042F821002FE04B48006854F82000002893
:1024500029DD484909685DF82100484911F8200044
:1024600008300121814046480088884300B2444931
:102470000880404909685DF82100404911F82010A2
:10248000012088403E490988084300B23C49088041
:102490000020384A12685DF82210384A52F821109C
:1024A000384A42F821003649098888B200F059FAC2
:1024B00030480068401C2F4908602E4800680328F7
:1024C0008FDB00202B4908604CE02A49096854F84A
:1024D0002180B8F1000F01DB414601E0C8F10001A5
:1024E000371E01DB3A4600E07A42891A88B200F0D2
:1024F000BBF9204909685DF82100204911F8200046
:102500000830012181401E480088884300B21C49E0
:102510000880184909685DF82100184911F8201051
:102520000120884016490988814308B2144908806F
:102530004FF07E510F4A12685DF822000F4A52F8A0
:102540002000104A42F820100D49098888B200F096
:1025500008FA0848006854F8206006480068401CE3
:1025600004490860034800680328AEDB06B0BDE8F4
:10257000F0810000500000202D28000858010020A4
:10258000700100203003002010B501218807FFF7FB
:102590002BF84FF4005010494861002412E000F07D
:1025A0001FF800B20D4921F8140000F019F80B498A
:1025B00011F8141000EB012000B2084921F81400B2
:1025C000601CC4B2082CEADB4FF4005002490861D9
:1025D00000F024F810BD0000001001406810002039
:1025E00010B5002400BF02210B48FEF74DFE002865
:1025F000F9D04FF6FF710848FEF752FE00BF0121E7
:102600000548FEF741FE0028F9D00348FEF745FED5
:102610000446204610BD0000003001404FF4004049
:102620000349086008600860091F086070470000DF
:10263000140C014010B501211248FEF7D5FF4FF4EC
:10264000005011494861002412E000F021F800B266
:102650000E4921F8140000F01BF80C4911F8141071
:1026600000EB012000B2094921F81400601CC4B23B
:10267000082CEADB4FF400500349086100F032F8FF
:1026800010BD00000008004000100140320C002086
:1026900010B5002400BF02210B48FEF7F5FD00280D
:1026A000F9D04FF6FF710848FEF7FAFD00BF01218F
:1026B0000548FEF7E9FD0028F9D00348FEF7EDFDD7
:1026C0000446204610BD0000003800404FF4804012
:1026D0000349486108610861086108614861704701
:1026E000001001404FF48050034908600860086002
:1026F000091F086070470000140C014000B587B046
:1027000001211820FEF72AFD01218803FEF716FD9E
:102710004FF40050ADF8180003208DF81A0018206F
:102720008DF81B0006A93D48FEF70AFB4FF48040D8
:10273000ADF8180004208DF81B0006A93748FEF7F5
:10274000FFFA4FF40050ADF8180010208DF81B0070
:1027500006A93348FEF7F4FA0020ADF804004FF460
:102760008270ADF806000020ADF80800ADF80A0050
:10277000ADF80C004FF40070ADF80E002820ADF855
:1027800010000020ADF812000720ADF8140001A9D8
:102790002448FEF787FD01212248FEF769FD01214B
:1027A0001820FEF7DBFC4FF48040ADF81800032042
:1027B0008DF81A0010208DF81B0006A91848FEF7A6
:1027C000BFFA4FF48050ADF8180003208DF81A00BE
:1027D00010208DF81B0006A91048FEF7B1FA4FF43F
:1027E0008070ADF8180010208DF81B0006A90E4867
:1027F000FEF7A6FAFFF76AFF4FF480500749103141
:10280000086040F2CF213120FEF7BEFE4FF4807009
:1028100005491431086007B000BD0000000C0140FC
:1028200000100140003800400008014030B5024669
:102830001068002801DB054600E045422B46086889
:10284000002801DB054600E045422C46A34208D1A2
:1028500010680D68A84201DD012030BD4FF0FF3047
:10286000FBE7181BF9E7000030B503464FF0E02402
:10287000A169254C248803FB04F200204FF0E024DA
:102880006469B2FBF4F4214D2C704FF0E0246469CC
:10289000B2FBF4F504FB1520814215D9081A00BFDC
:1028A0001A4C2478002CFBD10A2806D200BF4FF026
:1028B000E024A4690A2CFAD824E000BF4FF0E024F9
:1028C000A4698442FAD81DE0104C2478641C0F4D92
:1028D0002C704FF0E02464690C44201A00BF0B4CAC
:1028E0002478002CFBD10A2806D200BF4FF0E02448
:1028F000A4690A2CFAD805E000BF4FF0E024A469CF
:102900008442FAD830BD00009001002093010020DD
:1029100070B50446402500F091F8284600F060F8B4
:1029200000F0B8F800B118E0002000F059F800F00D
:10293000B1F800B111E0201200F052F800F0AAF84E
:1029400000B10AE0E0B200F04BF800F0A3F800B1EB
:1029500003E000F08DF8002070BD00F089F8012040
:10296000FAE770B50446402500F068F8284600F004
:1029700037F800F08FF800B118E0122000F030F8BE
:1029800000F088F800B111E0201200F029F800F002
:1029900081F800B10AE0E0B200F022F800F07AF825
:1029A00000B103E000F064F8002070BD00F060F8B2
:1029B0000120FAE700BF054A128802F04002002A0F
:1029C000F9D0C2B2014B1B1D1A807047003801407C
:1029D000002001E0411CC8B20A28FBDB7047000060
:1029E00070B50446002523E004F0800020B180216A
:1029F0001148FEF78DFA03E080210F48FEF786FAB2
:102A0000FFF7E6FF40210C48FEF782FAFFF7E0FFF0
:102A100040210948FEF77AFA072D03D180210648A4
:102A2000FEF776FA6006040EFFF7D2FF681CC5B207
:102A3000082DD9DB70BD0000000C014010B58021CD
:102A40000A48FEF765FA40210848FEF761FAFFF7E9
:102A5000BFFF80210548FEF759FAFFF7B9FF402173
:102A60000248FEF753FAFFF7B3FF10BD000C014018
:102A700010B580210648FEF749FA40210448FEF7C8
:102A800047FAFFF7A5FF80210148FEF741FA10BD84
:102A9000000C014010B580210D48FEF739FAFFF710
:102AA00097FF40210A48FEF733FAFFF791FF802194
:102AB0000748FEF719FA08B1012400E0002440217C
:102AC0000348FEF723FAFFF783FF204610BD0000FE
:102AD000000C014008B501210820FEF73FFBC02093
:102AE000ADF8000003208DF8020014208DF80300DB
:102AF00069460348FEF724F9FFF7BAFF08BD000056
:102B0000000C014088B000BF4FF47A7B4FF0000A00
:102B10000A214820FEF768FC4FF4E13000F0FCF891
:102B200043F2AF6146F2A710FEF7EEFCFFF7D2FFCB
:102B30000020FFF7EDFE0020FFF713FFFFF7DEFD9B
:102B4000FEF700FAFDF7FAFF5846FFF78DFE5846EC
:102B5000FFF78AFEFEF798FA02E00A20FFF784FEEC
:102B60006248008800F400400028F6D000205F4949
:102B70000880FEF789FA5E495E4A126851F8220021
:102B8000FDF74AFC04460D4659495B4A126851F864
:102B90002200FDF741FC06460F465549574A126888
:102BA00051F82200FDF738FC804642460B4654A0FF
:102BB000CDE90067CDE90245FEF75CFF0A20FFF78B
:102BC00053FE4FF0190A3FE0524A07CA05AB07C34C
:102BD00002E00A20FFF748FE4448008800F4004065
:102BE0000028F6D000204149088005A8FFF7A8FB7F
:102BF000FEF74AFA1FFA8BF0FFF736FE3C493D4AD2
:102C0000126851F82200FDF707FC804689463849D2
:102C1000394A126851F82200FDF7FEFB04460D46C2
:102C20003349364A126851F82200FDF7F5FB064693
:102C300032460B4632A08DE83003FEF71BFFAAF1A7
:102C4000010000F0FF0A00BFBAF1000FBCDC4FF03A
:102C5000190A42E02F4A0C3207CA05AB07C302E04B
:102C60000A20FFF701FE2148008800F400400028F8
:102C7000F6D000201D49088005A8FFF761FBFEF78C
:102C800003FA1FFA8BF0FFF7EFFD1949194A126892
:102C900051F82200FDF7C0FB04460D461449164AC0
:102CA000126851F82200FDF7B7FB06460F4610499F
:102CB000124A126851F82200FDF7AEFB80464246E8
:102CC0000B460FA0CDE90067CDE90245FEF7D2FE25
:102CD000AAF1010000F0FF0A00BFBAF1000FB9DC51
:102CE00002E06420FFF7C0FDFBE700009801002030
:102CF000D00200206C010020680100206401002047
:102D00003120252E336620252E336620252E33666E
:102D10000D0A0000B82D000810B586B00446012148
:102D200044F20400FEF71AFA4FF40070ADF81400F4
:102D300003208DF8160018208DF8170005A91C48EF
:102D4000FDF7FEFF4FF48060ADF8140004208DF80D
:102D5000170005A91648FDF7F3FF25208DF80000A0
:102D600000208DF8010001208DF802008DF803008D
:102D70006846FEF747F901940020ADF80800ADF869
:102D80000A00ADF80C00ADF810000C20ADF80E00F4
:102D900001A90848FEF7DCFD012240F22551054853
:102DA000FEF7B1FD01210348FEF777FD06B010BD27
:102DB00000080140003801406AFFFFFF00000000EA
:102DC0003C0000003C000000000000006AFFFFFF24
:102DD000F02D000800000020B4010000F4070008F6
:102DE000502E0008B4010020C4120000A41A0008EC
:102DF000001051FFAA52FFAA67FFAA60FFAA61FF55
:102E0000AA620A31640441320132023203320432CE
:102E1000053206320732083209320A320B0A370C01
:102E2000340B1CC242040A1BC8042DCDCCCC3D740B
:102E30001A4C6D69B8C129882980E90C012F2D0130
:102E4000020304041009060708090204060800002A
:04000005080000ED02
:00000001FF
