:020000040800F2
:1000000078140020050100080D0100080F01000808
:10001000110100081301000815010008000000008C
:1000200000000000000000000000000017010008B0
:1000300019010008000000001B0100082914000835
:100040001F0100081F0100081F0100081F01000810
:100050001F0100081F0100081F0100081F01000800
:100060001F0100081F0100081F0100081F010008F0
:100070001F0100081F0100081F0100081F010008E0
:100080001F0100081F0100081F0100081F010008D0
:100090001F0100081F0100081F0100081F010008C0
:1000A0001F0100081F0100081F0100081F010008B0
:1000B0002515000841150008C91500081F01000892
:1000C0001F0100081F0100081F0100081F01000890
:1000D0001F01000845170008CD1700085518000833
:1000E0001F0100081F0100081F010008DFF810D0E1
:1000F00000F08EFB00480047ED2C0008AFF30080B5
:10010000781400200648804706480047FEE7FEE7CF
:10011000FEE7FEE7FEE7FEE7FEE7FEE7FEE7FEE7B7
:10012000C5140008ED00000840EA01039B0703D056
:1001300009E008C9121F08C0042AFAD203E011F826
:10014000013B00F8013B521EF9D27047F0B480EA3F
:100150000102D40F4200B2EB410F02D20246084620
:1001600011464A0042D0C30DDDB2C1F3C752AD1AE9
:10017000202D35DAC1F3160141F4000204B15242D8
:10018000C5F1200602FA06F12A411044B3EBD05F14
:1001900023D0C4B1012DA0EBC35009DCF0BC4FF05B
:1001A000004202EAC352DBB200F5000000F01DBAC3
:1001B000400000F1807000EBC350A0F1807040EA75
:1001C000D170490009E0490841EAC071A0EBC35071
:1001D00000F50000400800EBC350F0BC00F0FCB993
:1001E0006142012202EB4101001BF6E7F0BC7047BF
:1001F00081F00041AAE780F00040A7E72DE9FE4F1B
:10020000804681EA0300C00F0C46009021F00041B7
:1002100023F00045B8EB0200A94105D24046214633
:1002200090461C460B46024623F00040104347D040
:10023000270DC7F30A00C3F30A510290401A019038
:1002400040286BDAC3F3130040F4801B00989246F9
:1002500020B10023D2EB030A63EB0B0B0198594644
:10026000C0F14002504600F096F906460D46504651
:100270005946019A00F09EF910EB080061410024F4
:1002800087EA115284EAE7731A4340D0009A62B3B6
:10029000019A012A4FEA075215DC001B61EB0201AB
:1002A0004FF0004202EA0752CDE90042001C41F53E
:1002B000801132462B4600F0D5F903B0BDE8F08F2F
:1002C00040462146F9E7001B61EB0201001C41F5A5
:1002D000801300185B412018A2F5001747EB0301BB
:1002E00040EAD570B6196D4111E06D084FEA360647
:1002F00045EAC0754FEA0752001B61EB0201001C82
:1003000041F5801149084FEA300000195141324649
:100310002B4603B0BDE8F04F00F095B900980122DC
:1003200040000023D0EB020263EBE073009821460B
:100330004FEAE074B8EB000061EB0401E9E783F0F9
:1003400000435BE781F0004158E72DE9FE4F81EA69
:10035000030404F0004421F0004100944FF0000B2E
:1003600023F0004350EA01045ED052EA03045BD05C
:10037000C3F30A54C1F30A552C44A4F2F334019494
:10038000A0FB0254C1F3130141F48011C3F3130322
:1003900043F4801301FB024400FB034E840A970AD6
:1003A00044EA815447EA8357A4FB076802958D0A03
:1003B00005FB07854FEA932C04FB0C542705029D8F
:1003C0004FEA065847EA1637B5EB08056EEB070CFF
:1003D000870E920E47EA811742EA8312A7FB0201B9
:1003E000B6EB0B0164EB00042B0D43EA0C335E18F3
:1003F00044EB1C50DA465146E7FB0201C5F31304F7
:100400004FEA0B3343EA14534FEA0432019C43EAA8
:100410000603A4F10C040294009CCDE900B400F0A2
:1004200021F903B0BDE8F08F00200146F9E70EB5D1
:10043000C10F80EAE0700844CA07002140F233434C
:100440008DE80E000A460B4600F00CF903B000BD23
:1004500000F0004230F000400AD0C10D01F560719B
:10046000C0F3160042EA0151C20840071143704729
:10047000002001467047000030B5041E71F10004F1
:1004800004DB4FF00044404264EB0101141E73F1A1
:10049000000405DB1C464FF00043524263EB0403AB
:1004A000994208BF904230BD01F0004330B421F0C2
:1004B000004150EA010206D00A0DA2F56072C1F3B4
:1004C0001301002A02DC30BC00207047440F44EACC
:1004D000C104C100E01830BC00EBC25000F07CB891
:1004E000002801DBC0F10040002901DBC1F100411F
:1004F00081427047002801DBC0F10040002901DB88
:10050000C1F100418842704730B50B4601460020DA
:100510002022012409E021FA02F59D4205D303FAC5
:1005200002F5491B04FA02F52844151EA2F1010246
:10053000F1DC30BD2DE9F05F0546002092469B4678
:1005400088460646814640241BE0284641464746E9
:10055000224600F06FF953465A46C01A914110D313
:1005600011461846224600F016F82D1A67EB0108CE
:100570004F4622460120002100F00DF817EB00093C
:100580004E41201EA4F10104DFDC484631462A46D4
:100590004346BDE8F09F202A04DB203A00FA02F12E
:1005A000002070479140C2F1200320FA03F3194361
:1005B00090407047202A06DBCB17203A41FA02F020
:1005C00043EAE07306E041FA02F3D040C2F12002B0
:1005D00091400843194670470029A8BF7047401C46
:1005E000490008BF20F00100704710B4B0FA80FC49
:1005F00000FA0CF050EA010404BF10BC704749B186
:10060000CCF1200421FA04F411FA0CF118BF0121F5
:1006100021430843A3EB0C01CB1D4FEA00614FEAD5
:10062000102042BF002010BC704700EBC3501044A4
:100630000029A4BF10BC7047401C490008BF20F02F
:10064000010010BC704710B5141E73F1000408DAE5
:10065000401C41F1000192185B411A4301D120F086
:10066000010010BD2DE9F04D92469B4611B1B1FA43
:1006700081F202E0B0FA80F220329046FFF78BFF61
:1006800004460F4640EA0A0041EA0B0153465A4627
:10069000084313D0114653EA010019D0C8F14002B3
:1006A000504600F0C7F805460E46504659464246A9
:1006B000FFF771FF084305D0012004E020463946CA
:1006C000BDE8F08D0020054346EAE0762C43374331
:1006D0000A986305E40AA0EB08000022FD0A44EA38
:1006E00047540A3002D500200146E9E701051019F8
:1006F0006941DDE9084500196941BDE8F04DA2E70F
:100700002DE9F04D81EA030404F0004B21F000458F
:1007100014464FF0000A23F0004150EA050220D0B1
:1007200054EA01021DD0C5F30A570246C5F313036C
:10073000C1F31300C1F30A5640F4801543F480134B
:10074000A7EB0608101BD64608F2FD3873EB050030
:1007500002D308F1010801E092185B41B8F1000FE3
:1007600003DA00200146BDE8F08D00204FF480112F
:10077000064684460EE0171B73EB050705D3121BD4
:1007800063EB050306434CEA010C49084FEA3000CD
:1007900092185B4150EA0107EDD152EA030012D0F2
:1007A00082EA040083EA0501084305D0101BAB412F
:1007B00006D20122002306E000224FF0004302E0AF
:1007C0006FF0010253101AEB06004CEB085110EBCE
:1007D0000A0041EB0B01BDE8F04DFFF734BFC1F358
:1007E0000A52C1F3130140F2FF3341F480119A42DF
:1007F00002DA00200146704740F233439A42A2F2E7
:10080000334202DC524200F015B8FFF7C4BE0000CC
:10081000064C074D06E0E06840F0010394E807004D
:1008200098471034AC42F6D3FFF764FC80320008DE
:10083000A0320008202A04DB203A21FA02F000212D
:10084000704721FA02F3D040C2F1200291400843E0
:100850001946704770B58C1810F8015B15F0070346
:1008600001D110F8013B2A1106D110F8012B03E049
:1008700010F8016B01F8016B5B1EF9D12B0705D451
:100880000023521E0DD401F8013BFAE710F8013B9A
:10089000CB1A921C03E013F8015B01F8015B521EB6
:1008A000F9D5A142D8D3002070BD00002DE9F04F4A
:1008B0008DB04FF00009B7E05F4830F919405F484C
:1008C00030F91900002858DA604204B20A2094FB7B
:1008D000F0F100FB11473846FFF7A9FD0546584ADD
:1008E000584BFFF732FDCDE90801642094FBF0F18D
:1008F00000FB11400A2190FBF1F73846FFF797FD06
:100900000546514A514BFFF720FDCDE904014FF454
:100910007A7094FBF0F100FB1140642190FBF1FA36
:100920005046FFF784FD4A4A4A4BCDE90001FFF7E4
:100930000CFD05460E464FF47A7094FBF0FA5046D3
:10094000FFF775FD07462A463346FFF757FCCDE90A
:100950000201DDE90423FFF751FCCDE90601DDE9E1
:100960000823FFF74BFC81F00041CDE90A01FFF7B6
:100970009BFD394941F8290052E00A2094FBF0F12F
:1009800000FB11473846FFF752FD05462C4A2D4B18
:10099000FFF7DBFCCDE90801642094FBF0F100FBDC
:1009A00011400A2190FBF1F73846FFF740FD05465C
:1009B000254A264BFFF7C9FCCDE904014FF47A70B4
:1009C00094FBF0F100FB1140642190FBF1F00190E9
:1009D000FFF72DFD05461E4A1E4BFFF7B6FC0746E6
:1009E00088464FF47A7094FBF0F52846FFF71FFD18
:1009F0003A464346CDE90201FFF700FC8246DDE9B5
:100A00000423FFF7FBFBCDE90601DDE90823FFF72F
:100A1000F5FBCDE90A01FFF747FD0F4941F8290031
:100A200009F101000FFA80F9B9F1080FFFF644AFA0
:100A30000DB0BDE8F08F0000120C0020220C002049
:100A4000FCA9F1D24D62503F7B14AE47E17A843F5E
:100A50009A9999999999B93F9401002010B500236A
:100A600015E0184600F08EFA0A4921F813000846EE
:100A700030F9134041F28830604347F6FF7190FB34
:100A8000F1F000B2044921F81300581CC3B2082B3E
:100A9000E7DB10BD220C0020120C002021B182687F
:100AA00042F00102826003E0826822F0010282606B
:100AB0007047000010B504461248844208D1012155
:100AC000401500F08BFB0021601500F087FB17E05C
:100AD0000D48844208D10121001500F07FFB002160
:100AE000201500F07BFB0BE00848844208D101216F
:100AF000C80300F073FB00214FF4004000F06EFBD0
:100B000010BD00000024014000280140003C0140CD
:100B1000014600208A6802F004020AB1012000E0C8
:100B200000207047014600208A6802F008020AB1DE
:100B3000012000E00020704730B50246002000236D
:100B400050680F4C20400D790C6844EA052420437E
:100B5000506090680B4C2040D1E902542C434D79F1
:100B600044EA450420439060D06A20F470000C7C75
:100B7000641EE4B2234340EA0350D06230BD00005B
:100B8000FFFEF0FFFDF7F1FF816841F00801816091
:100B90007047816841F004018160704700B587B0FB
:100BA00001214FF4017000F009FB4FF4004000F008
:100BB000D9FA0320ADF8040000208DF8070001A940
:100BC000174800F0EDF81748FFF774FF0020029077
:100BD0008DF80C008DF80D004FF46020049000207B
:100BE000059001208DF8180002A90E48FFF7A4FF18
:100BF00001210C48FFF752FF0A48FFF7C5FF00BF6D
:100C00000848FFF78FFF0028FAD10648FFF7C1FF19
:100C100000BF0448FFF77CFF0028FAD107B000BDF1
:100C2000000801400024014010B5044600F0FEF920
:100C30001D4801780078401C1B4A10701B48445422
:100C40000078552803D000201146087010BD1648C2
:100C500000780B2800DAF9E714484078512804D0CE
:100C600052280AD0532818D10FE011480F49891C87
:100C70000A680260496841600FE00E480B49891C10
:100C80000A6802604968416007E00B480749891C0F
:100C90000A6802604968416000BF00BF0020024945
:100CA000087000BFD2E700006C0100205003002054
:100CB00010000020200000203000002010B5044665
:100CC00000F0B4F91D4801780078401C1B4A1070F0
:100CD0001B4844540078552803D000201146087062
:100CE00010BD164800780B2800DAF9E71448407860
:100CF000512804D052280AD0532818D10FE01148A7
:100D00000F49891C0A680260496841600FE00E487B
:100D10000B49891C0A6802604968416007E00B487A
:100D20000749891C0A6802604968416000BF00BF2A
:100D300000200249087000BFD2E700006D010020CA
:100D40004A0400201800002028000020380000205D
:100D5000F8B507460C4615461E460121042000F052
:100D60000DFA0121082000F009FA0121102000F0FD
:100D700005FA0121202000F001FA0121802000F075
:100D8000FDF9684600F0F6F88DF803508DF8026022
:100D9000A0B2ADF800006946384600F001F8F8BD91
:100DA0002DE9F04102460025002600200023002402
:100DB000002791F803C00CF00F0591F803C00CF068
:100DC000100CBCF1000F03D091F802C04CEA0505ED
:100DD00091F800C0BCF1000F31D0146800202BE066
:100DE0004FF0010C0CFA00F3B1F800C00CEA030656
:100DF0009E4220D183004FF00F0C0CFA03F7BC4346
:100E000005FA03FC4CEA040491F803C0BCF1280F76
:100E100006D14FF0010C0CFA00FCC2F814C00AE035
:100E200091F803C0BCF1480F05D14FF0010C0CFA4A
:100E300000FCC2F810C0401C0828D1D31460B1F8DF
:100E400000C0BCF1FF0F34DD546800202EE000F13B
:100E5000080C4FF0010808FA0CF3B1F800C00CEAD6
:100E600003069E4221D183004FF00F0C0CFA03F7CA
:100E7000BC4305FA03FC4CEA040491F803C0BCF13E
:100E8000280F05D100F1080C08FA0CF8C2F81480FC
:100E900091F803C0BCF1480F07D100F1080C4FF0E6
:100EA000010808FA0CF8C2F81080401C0828CED3BC
:100EB0005460BDE8F0810000F0B50A46002300242C
:100EC0000021002500F00046B6F1004F02D11D4E72
:100ED000F16901E01B4E7168C0F3034583B200F471
:100EE0004016B6F5401F08D121F07061154E7668A6
:100EF00026F07066134F7E6012E000F48016B6F59F
:100F0000801F06D1032606FA05F4A14341F0706163
:100F100006E0460D360103FA06F6B14341F0706172
:100F200022B1460D360103FA06F6314300F00046C1
:100F3000B6F1004F02D1034EF16101E0014E716044
:100F4000F0BD0000000001400246002093680B4005
:100F50000BB1012000E00020704702460020D3685A
:100F60000B400BB1012000E0002070474161704749
:100F7000016170474FF6FF710180022181700421E9
:100F8000C17070470146012080F3108800BF0448FB
:100F900030F91120002080F3108800BF1046704700
:100FA000320C002008B501210C2000F007F94FF4A5
:100FB000C050ADF8000010208DF8030003208DF81C
:100FC000020069460848FFF7EBFE4FF48070ADF869
:100FD000000028208DF8030003208DF802006946E8
:100FE0000248FFF7DDFE08BD00080140000C01408B
:100FF00010B50121084600F0E1F801210848FFF78B
:101000005BFF0121042000F0B9F801231022D10276
:101010000448FFF79DFE01200349087010BD000041
:1010200000023000000801407C01002010B50B4890
:10103000007808B9FFF7DCFF4FF400410848FFF7DC
:101040008CFF28B14FF400410548FFF78FFF04E003
:101050004FF400410248FFF78BFF10BD7C010020D8
:101060000008014070B5002100230F22C47804B3AA
:10107000154C246804F4E064C4F5E064210AC1F16D
:101080000403CA40447804FA03F1847814402143ED
:1010900009010E4C0678A155047804F01F050124BF
:1010A000AC4005786D11AD0005F1E025C5F80041B3
:1010B00009E0047804F01F050124AC40044D0678D3
:1010C000761145F8264070BD0CED00E000E400E02C
:1010D00080E100E002490143024A116070470000CC
:1010E0000000FA050CED00E010B5FFF7B7FCFFF7C4
:1010F000DDFB0020174908600EE017481549096814
:1011000050F821001549134A126841F8220011488D
:101110000068401C0F4908600E4800680828ECDB96
:1011200000200C49086010E00C490A4A126851F886
:10113000220000F0B3FC0A49064A126841F8220076
:1011400004480068401C03490860024800680828F9
:10115000EADB10BD5000002094010020D4010020E3
:10116000B002002001460020034A506820F44040AD
:1011700008435060704700000010024029B1064A41
:1011800052690243044B5A6104E0034A52698243A4
:10119000014B5A61704700000010024029B1064A15
:1011A000D2690243044BDA6104E0034AD269824304
:1011B000014BDA61704700000010024029B1064A75
:1011C00092690243044B9A6104E0034A92698243A4
:1011D000014B9A61704700000010024029B1064A95
:1011E000D2680243044BDA6004E0034AD2688243C7
:1011F000014BDA60704700000010024030B500215A
:101200000022002400232D4D6D6805F00C0121B152
:10121000042905D0082923D105E0294D056022E0E5
:10122000274D05601FE0254D6D6805F47012234DB4
:101230006D6805F48034022505EB92421CB9214DFE
:10124000554305600BE01D4D6D6805F400351DB17B
:101250001C4D5543056002E0194D5543056002E001
:10126000174D056000BF00BF144D6D6805F0F0011B
:101270000909154D6B5C0568DD4045600F4D6D68D3
:1012800005F4E061090A104D6B5C4568DD4085603E
:101290000A4D6D6805F46051C90A0B4D6B5C4568D9
:1012A000DD40C560054D6D6805F44041890B074D73
:1012B0006B5CC568B5FBF3F5056130BD00100240FD
:1012C00000127A0000093D007F0100208F010020FC
:1012D00021B1028842F04002028004E002884FF609
:1012E000BF731A40028070470246002013890B40EA
:1012F0000BB1012000E0002070470146888970474B
:101300008181704710B50022028802F441520B8897
:101310004C8823438C882343CC8823430C89234364
:101320004C8923438C892343CC8923431A4302806D
:10133000838B4FF2FF74234083830B8A038210BD9B
:1013400010B500F001F810BD0CB500200190009020
:101350003348006840F480303149086000BF3048AD
:10136000006800F4003000900198401C0190009843
:1013700018B90198B0F5A06FF1D12948006800F4C0
:10138000003010B10120009001E000200090009892
:10139000012843D12348006840F01000214908602B
:1013A0000846006820F0030008600846006840F026
:1013B000020008601A4840681949486008464068B9
:1013C00048600846406840F48060486008464068CD
:1013D00020F47C1048600846406840F4E8104860FB
:1013E0000846006840F08070086000BF0C48006844
:1013F00000F000700028F9D00948406820F0030090
:10140000074948600846406840F00200486000BF55
:101410000348406800F00C000828F9D10CBD00001A
:1014200000100240002002400120054908700548D4
:10143000007820B103480078401E024908707047C8
:10144000720100207301002038B504460D460020CB
:101450004FF0E021886105FB04F000EB4001C1EB97
:10146000C0104FF0E021486103200861E11704EB50
:101470005171C1F3C701114A11701046007800EB99
:101480004001C1EBC0104FF6FF7101EAC0000C49EA
:1014900008804FF4C060FFF71DFEFF208DF80000AC
:1014A00003208DF8010000208DF8020001208DF846
:1014B00003006846FFF7D6FD38BD00006E0100202E
:1014C0007001002010B51348006840F00100114978
:1014D000086008464068104908400E4948600846C0
:1014E00000680E4908400B4908600846006820F46F
:1014F000802008600846406820F4FE0048604FF4F1
:101500001F008860FFF71CFF4FF00060044908606F
:1015100010BD0000001002400000FFF8FFFFF6FEC3
:1015200008ED00E010B50121880700F09FF828B110
:1015300000F036FF0121880700F089F810BD000097
:1015400010B50121064800F091F840B10548006847
:10155000401C044908600121014800F078F810BDE2
:1015600000040040540000207FB505460C460121D0
:101570000220FFF713FEADF80850ADF8044000203C
:10158000ADF80A00ADF8060001A90E4800F088F891
:10159000012211460B4800F07AF81D208DF800005A
:1015A00000208DF8010003208DF8020001208DF845
:1015B00003006846FFF756FD0121024800F04AF893
:1015C0007FBD00000004004010B50121054800F077
:1015D0004DF828B100F03AFF0121024800F037F839
:1015E00010BD0000000800407FB505460C460121F3
:1015F0000420FFF7D3FDADF80850ADF804400020FB
:10160000ADF80A00ADF8060001A90E4800F048F850
:10161000012211460B4800F03AF81E208DF8000018
:1016200001208DF8010003208DF8020001208DF8C3
:1016300003006846FFF716FD0121024800F00AF892
:101640007FBD000000080040CA4302827047CA43C1
:101650000282704721B1028842F00102028004E058
:1016600002884FF6FE731A400280704730B502467A
:10167000002000230024158A05EA0103958905EA64
:10168000010413B10CB1012000E0002030BD1AB1FB
:1016900083890B43838102E083898B438381704775
:1016A000002202881D4B98420ED01D4B98420BD051
:1016B000B0F1804F08D01B4B984205D01A4B98428E
:1016C00002D01A4B984204D14FF68F731A404B88C0
:1016D0001A43174B984207D0164B984204D04FF646
:1016E000FF431A40CB881A4302808B8883850B887E
:1016F00003850A4B98420BD0094B984208D00E4BF9
:10170000984205D00D4B984202D00D4B984201D122
:101710000B7A03860123838270470000002C01406E
:10172000003401400004004000080040000C00406C
:1017300000100040001400400040014000440140FF
:101740000048014010B540F225511D4800F0E1F875
:1017500010B31B4800F098F9C4B21A48008800F48E
:101760000040C8B91748008800F4804060B10A2CD6
:1017700003D000201349088020E01248008840F47C
:1017800000401049088019E00D2C06D10D48008852
:1017900040F480400B49088010E00A480088C0F3FC
:1017A0000D0009490C5407480088401C0549088071
:1017B00008460088C72801DD0020088010BD000011
:1017C00000380140780100204405002010B540F2A7
:1017D00027711C4800F09DF8E0B11B4802780078A2
:1017E000401C194B18701948815C164800F051F9DB
:1017F00040F22771134800F071F81348007814493B
:101800000978884217D1002240F227710D4800F074
:10181000AAF810E040F225510A4800F07AF850B1D9
:101820000849091D0988C8B2FFF7FEF940F22551A1
:10183000044800F053F84FF45871024800F04EF895
:1018400010BD0000004400407A0100200C0600207A
:101850007B01002010B540F227711C4800F059F8B8
:10186000E0B11B4802780078401C194B18701948E9
:10187000815C164800F00DF940F22771134800F022
:101880002DF81348007814490978884217D10022AE
:1018900040F227710D4800F066F810E040F2255143
:1018A0000A4800F036F850B10849091D0988C8B245
:1018B000FFF704FA40F22551044800F00FF84FF406
:1018C0005871024800F00AF810BD000000480040BE
:1018D0007D0100200C0700207E01002010B50022B1
:1018E000002340F66A14A14200D100BF0A1201246D
:1018F0009440A3B2DC43048010BD21B1828942F43C
:101900000052828104E082894DF6FF731A40828181
:10191000704770B50246002400230025002040F6E1
:101920006A16B14200D100BFC1F3421501F01F0396
:10193000012606FA03F3012D02D19689334006E011
:10194000022D02D1168A334001E0968A33400C12F0
:10195000012606FA04F41688344013B10CB10120B4
:1019600000E0002070BDF0B50346002400260025ED
:10197000002040F66A17B94200D100BF1846C1F3F3
:10198000421401F01F06012707FA06F5012C01D1C8
:101990000C3004E0022C01D1103000E014301AB1F8
:1019A00007682F43076002E00768AF430760F0BD98
:1019B0002DE9F04786B005460E460024A24600BF3A
:1019C000A1460027B08900B100BF2F462C8A4CF6F3
:1019D000FF700440F08804432C82AC894EF6F3106B
:1019E0000440B08831890843718908430443AC81BD
:1019F000AC8A4FF6FF400440B0890443AC8201A892
:101A0000FFF7FCFB1F48874202D1DDF810A001E080
:101A1000DDF80CA0A88900F4004040B10AEBCA0030
:101A200000EB0A1031684900B0FBF1F807E00AEB5F
:101A3000CA0000EB0A1031688900B0FBF1F864209D
:101A4000B8FBF0F004012009642101FB1089A8898A
:101A500000F4004040B1322000EBC900B0FBF1F0CF
:101A600000F00700044308E0322000EB0910642175
:101A7000B0FBF1F000F00F0004432C8106B0BDE88C
:101A8000F08700000038014001468888C0F3080054
:101A90007047C1F308028280704700002DE9F05FB3
:101AA00082465046FEF7D4FC80460022074BFEF7E4
:101AB00046FC06460022064BFEF747FC0446FEF7AE
:101AC000F3FC83465846BDE8F09F00000000044048
:101AD000000049400FB4054B10B503A9044A029811
:101AE00000F0DAF810BC5DF814FB00009127000844
:101AF0007401002002E008C8121F08C1002AFAD1B0
:101B000070477047002001E001C1121F002AFBD17D
:101B1000704700002DE9FF5F82B00021DDE904304D
:101B2000020DDDF840B0034318D044F61050A2F285
:101B3000FF3242431514119801281FD0A5EB0B006A
:101B4000401C5FEA000A4FF000064E4FDFF8389164
:101B5000B046504615D5CAF1000413E0119801248F
:101B60004AA3012801D16FEA0B010298119AC0E93A
:101B70000031C0E9024206B0BDE8F09FCBF10000A1
:101B8000DFE704460021404A491842EB0450CDE902
:101B9000001012E0E00707D032463B464046494677
:101BA000FEF7D3FB8046894632463B46104619462F
:101BB000FEF7CBFB06460F466410002CEAD1DDE9A8
:101BC0000401DDE90023BAF1000F06DAFEF7BDFBE0
:101BD00042464B46FEF7B9FB05E0FEF791FD424653
:101BE0004B46FEF78DFD04460E460022284BFEF7BD
:101BF00043FC03D84FF0FF30014607E00022254B9D
:101C000020463146FEF7FAFAFEF7E9FD102409E016
:101C1000002C0ADB0A220023FEF78CFC039B3032E7
:101C20001A55641E50EA0102F2D1641C039AC4F1F1
:101C300011031444119A012A03D0012208430DD143
:101C40000AE0084304D000204FF0110B119072E716
:101C5000A3EB0B056D1E0DE05B4504DD4FF00002AC
:101C600005F1010504E003DA4FF00002A5F10105DA
:101C7000002AECD002981199C0E90231C0E9004570
:101C800079E70000000014400000F03F3000000041
:101C90000000F0430000E03F2DE9FF4F95B09A4669
:101CA000884606460025EEE1252877D10024274600
:101CB000F94A0121039400E0044316F8013F203B58
:101CC00001FA03F01042F7D130782A2811D06FF0D2
:101CD0002F033078A0F13002092A16D8039A44F075
:101CE000020402EB820203EB42021044761C0390D2
:101CF000EFE758F8042B0392002A03DA504244F429
:101D00000054039044F00204761C30782E2816D13B
:101D100016F8010F44F004042A280DD06FF02F02AA
:101D20003078A0F13003092B09D807EB870302EBC9
:101D30004303C718761CF3E758F8047B761C307809
:101D40006C280FD006DC4C2817D068280DD06A28E4
:101D500014D104E0742810D07A280FD10DE044F497
:101D600000140AE044F4801401E044F44014727852
:101D7000824202D104F58014761C761C30786628E5
:101D80000BD013DC582877D009DC002875D0452803
:101D9000F6D04628F4D047281AD193E118E06328FA
:101DA00035D0642879D0652812D18BE1702873D0A2
:101DB00008DC6728F1D069286FD06E280DD06F2815
:101DC00006D1ACE073282CD0752874D0782853D075
:101DD0005246179990476D1C54E1C4F302500228F3
:101DE00009D003280DD0D8F8001004280DD00D60BC
:101DF00008F1040846E1D8F80010EA17C1E90052DA
:101E0000F6E7D8F800100D80F2E70D70F0E718F84B
:101E1000041B8DF8001000208DF80100EB46012016
:101E200003E058F804BB4FF0FF3061074FF00001AA
:101E300002D40DE009F101018946B9420FDA81456A
:101E4000F8DB1BF809100029F4D108E009F10101C1
:101E500089468142FADB1BF809100029F6D1039864
:101E60005346A0EB090721463846179A00F080FA3E
:101E7000284400EB090507E044E008E10DE01BF809
:101E8000010B524617999047B9F10109F7D2534611
:101E900021463846179AF2E039E00A21C4F302528B
:101EA0004FF0000B0091022A06D058F8040BC1171E
:101EB000032A09D00AE023E008F1070020F0070216
:101EC000F2E80201904605E000B2C117042A01D1F0
:101ED00040B2C117002906DA0A460021404261EBF0
:101EE00002012D2202E0220504D52B228DF80420C8
:101EF000012203E0E20701D02022F7E7914657E0F4
:101F00000A2100E010214FF0000B00910BE010219E
:101F10004FF0000B44F004040827009103E0082070
:101F20004FF0000B0090C4F30252022A05D058F87B
:101F3000040B0021032A08D008E008F1070020F074
:101F40000702F2E80201904603E080B2042A00D1C1
:101F5000C0B24FF0000922072AD53278702A07D084
:101F6000DDF800C08CF0100C5CEA0B0C05D00EE024
:101F700040228DF80420012208E050EA010306D037
:101F800030238DF804308DF8052002229146009B05
:101F900083F0080353EA0B030AD150EA010201D18E
:101FA000620705D530228DF804204FF001097F1E0D
:101FB0003278582A04D039A20C920CAA02920BE073
:101FC0003BA2F9E75B46009AFEF7B4FA0C9B9B5CD8
:101FD000029A521E0292137050EA0102F2D1029844
:101FE00004A9081A00F1200B600702D524F48034FC
:101FF00000E001275F4502DDA7EB0B0000E00020B9
:1020000000EB0B01009003984944401A0390E00351
:1020100006D453462146179A039800F0A9F90544BF
:10202000002706E001A85246C05D179990476D1C35
:102030007F1C4F45F6DBE0030CD553462146179A2B
:10204000039800F095F9054404E0302052461799B2
:1020500090476D1C0099481E00900029F5DC08E0AF
:102060000298029952460078491C029117999047AC
:102070006D1CBBF10001ABF1010BF1DC5BE100F089
:1020800065F90544761C307800287FF40DAE19B050
:102090002846BDE8F08F00000928010030313233B6
:1020A0003435363738396162636465660000000094
:1020B000303132333435363738394142434445467E
:1020C00000000000600700D4062708F1070020F098
:1020D0000700F0E80223804603F0004C5FEA0C00A2
:1020E00001D097A009E0200501D596A005E0E00702
:1020F00001D095A001E0AFF24C001390307823F0AE
:10210000004365280CD006DC452809D046281DD0A0
:1021100047287FD13BE0662818D067287AD136E07F
:102120000021112F01DB112000E0781CCDE9000116
:1021300004A90CA8FFF7EEFCDDE90D010C9A4FF0A5
:10214000000B07F10109109200914EE04FF00040A2
:102150000097CDE9011004A90CA8FFF7DBFCDDE92D
:102160000D020C9B0F994FF0000B914610930092BB
:1021700011B9791C00EB0109B7EB090003D4C0F1D8
:10218000FF3B07F10109A9EB0700019042E0012F95
:1021900000DA01270021112F01DD112000E038466F
:1021A000CDE9000104A90CA8FFF7B4FCDDE90D019D
:1021B0000C9A00914FF0000BB946109221070FD4F2
:1021C000009A4A4503DA914601E0A9F10109B9F103
:1021D000010F05DD109AA9F10101515C3029F4D0FD
:1021E000B84202DA10F1040F03DA0121CDE901103F
:1021F00010E0002803DC8344A9EB000102E0411C4D
:10220000494500DD8946A0EB0B00401C01904FF0D2
:1022100000400290200705D40198484502DB4FF0AA
:10222000FF30019000208DF84B0002980DF14B0714
:10223000B0F1004F25D002200C902B200D90029879
:1022400000280CDA404202902D200D9007E00A2170
:102250000298FEF759F93031029007F8011D0C99E8
:10226000481E0C900029F2DC02980028EFD1791E5C
:102270000D980870307800F0200040F0450007F815
:10228000020D11A8C01BC01D02901398007800B168
:10229000012000EB0901019801EBE0710298014473
:1022A0000398401A401E0390E00306D4534621468B
:1022B000179A039800F05CF805441398007818B159
:1022C0005246179990476D1CE00323D5534621468B
:1022D000179A039800F04CF805441BE0BBF1000F7F
:1022E00007DB0098584504DD1098179910F80B008B
:1022F00001E0179930205246904701980BF1010BED
:10230000401E05F10105019004D12E205246179977
:1023100090476D1CB9F10001A9F10109DEDC05E06F
:1023200017F8010B5246179990476D1C0299481EE9
:1023300002900029F4DC53462146179A03989EE642
:102340002D0000002B000000200000002DE9F041CE
:10235000044600251E461746880404D405E0394685
:102360002020B0476D1C641EF9D52846BDE8F081D9
:102370002DE9F041044600251E469046C80301D5CC
:10238000302700E02027880404D505E04146384680
:10239000B0476D1C641EF9D52846BDE8F0810000E9
:1023A00010B501218807FFF74FF94FF4005010498D
:1023B0004861002412E000F01FF800B20D4921F836
:1023C000140000F019F80B4911F8141000EB01206B
:1023D00000B2084921F81400601CC4B2082CEADBE2
:1023E0004FF400500249086100F024F810BD0000CD
:1023F000001001406810002010B5002400BF022129
:102400000B48FEF771FF0028F9D04FF6FF7108481E
:10241000FEF776FF00BF01210548FEF765FF0028A3
:10242000F9D00348FEF769FF0446204610BD0000BE
:10243000003001404FF40040034908600860086024
:10244000091F086070470000140C014010B50121FD
:102450001248FFF7F9F84FF4005011494861002481
:1024600012E000F021F800B20E4921F8140000F04B
:102470001BF80C4911F8141000EB012000B20949B7
:1024800021F81400601CC4B2082CEADB4FF40050A1
:102490000349086100F032F810BD00000008004058
:1024A00000100140320C002010B5002400BF0221B2
:1024B0000B48FEF719FF0028F9D04FF6FF710848C6
:1024C000FEF71EFF00BF01210548FEF70DFF0028A3
:1024D000F9D00348FEF711FF0446204610BD000066
:1024E000003800404FF480400349486108610861AA
:1024F0000861086148617047001001404FF4805046
:102500000349086008600860091F08607047000000
:10251000140C014000B587B001211820FEF74EFED3
:1025200001218803FEF73AFE4FF40050ADF8180081
:1025300003208DF81A0018208DF81B0006A93D48CD
:10254000FEF72EFC4FF48040ADF8180004208DF803
:102550001B0006A93748FEF723FC4FF40050ADF8E6
:10256000180010208DF81B0006A93348FEF718FC50
:102570000020ADF804004FF48270ADF80600002092
:10258000ADF80800ADF80A00ADF80C004FF400708B
:10259000ADF80E002820ADF810000020ADF81200B4
:1025A0000720ADF8140001A92448FEF7ABFE012175
:1025B0002248FEF78DFE01211820FEF7FFFD4FF4A3
:1025C0008040ADF8180003208DF81A0010208DF817
:1025D0001B0006A91848FEF7E3FB4FF48050ADF846
:1025E000180003208DF81A0010208DF81B0006A992
:1025F0001048FEF7D5FB4FF48070ADF8180010209E
:102600008DF81B0006A90E48FEF7CAFBFFF76AFF0C
:102610004FF4805007491031086040F2CF2131203B
:10262000FEF7E2FF4FF4807005491431086007B0EF
:1026300000BD0000000C01400010014000380040C7
:102640000008014030B503464FF0E024A169254C55
:10265000248803FB04F200204FF0E0246469B2FBFD
:10266000F4F4214D2C704FF0E0246469B2FBF4F5D2
:1026700004FB1520814215D9081A00BF1A4C247892
:10268000002CFBD10A2806D200BF4FF0E024A46939
:102690000A2CFAD824E000BF4FF0E024A469844259
:1026A000FAD81DE0104C2478641C0F4D2C704FF0AC
:1026B000E02464690C44201A00BF0B4C2478002CE1
:1026C000FBD10A2806D200BF4FF0E024A4690A2CEF
:1026D000FAD805E000BF4FF0E024A4698442FAD89C
:1026E00030BD0000700100207301002070B5044669
:1026F000402500F091F8284600F060F800F0B8F8A6
:1027000000B118E0002000F059F800F0B1F800B175
:1027100011E0201200F052F800F0AAF800B10AE02F
:10272000E0B200F04BF800F0A3F800B103E000F0D5
:102730008DF8002070BD00F089F80120FAE770B52F
:102740000446402500F068F8284600F037F800F00D
:102750008FF800B118E0122000F030F800F088F88F
:1027600000B111E0201200F029F800F081F800B16A
:102770000AE0E0B200F022F800F07AF800B103E0DD
:1027800000F064F8002070BD00F060F80120FAE766
:1027900000BF054A128802F04002002AF9D0C2B2F6
:1027A000014B1B1D1A80704700380140002001E0DA
:1027B000411CC8B20A28FBDB7047000070B5044614
:1027C000002523E004F0800020B180211148FEF7AD
:1027D000CFFB03E080210F48FEF7C8FBFFF7E6FFC1
:1027E00040210C48FEF7C4FBFFF7E0FF40210948F9
:1027F000FEF7BCFB072D03D180210648FEF7B8FB8E
:102800006006040EFFF7D2FF681CC5B2082DD9DBA5
:1028100070BD0000000C014010B580210A48FEF791
:10282000A7FB40210848FEF7A3FBFFF7BFFF80216D
:102830000548FEF79BFBFFF7B9FF40210248FEF772
:1028400095FBFFF7B3FF10BD000C014010B58021D0
:102850000648FEF78BFB40210448FEF789FBFFF793
:10286000A5FF80210148FEF783FB10BD000C01404D
:1028700010B580210D48FEF77BFBFFF797FF402145
:102880000A48FEF775FBFFF791FF80210748FEF726
:102890005BFB08B1012400E0002440210348FEF75F
:1028A00065FBFFF783FF204610BD0000000C0140D0
:1028B00008B501210820FEF781FCC020ADF800001A
:1028C00003208DF8020014208DF8030069460348A8
:1028D000FEF766FAFFF7BAFF08BD0000000C0140E2
:1028E0002DE9F0478246BAF1010F7DD10020F6496B
:1028F0000860DFE0F54AF44B1B6852F82320F44BE4
:1029000053F82210F14AF04B1B6852F82320F14B88
:1029100053F82200FDF76CFC0446EF48016820469E
:10292000FDF7E8FD25D2E948E749096810F82100DC
:102930000830012101FA00F0E8490988084300B293
:10294000E6490880E148E049096810F821100120B3
:102950008840E2490988814308B2E04908800020A4
:10296000DA49D94A126851F82210DD4A42F82100AA
:1029700096E0D64AD44B1B6852F82320D54B53F827
:102980002210D24AD04B1B6852F82320D04B53F868
:102990002200FDF72DFC0446CF4801682046FDF7D4
:1029A000A9FD26D2C948C849096810F82100083095
:1029B00001218140C9480088884300B2C749088086
:1029C000C248C149096810F8211001208840C34954
:1029D0000988084300B2C14908800020BB49BA4AAF
:1029E000126851F8221000E06AE0BD4A42F8210066
:1029F00056E0B64AB44B1B6852F82320B54B53F847
:102A00002210B24AB04B1B6852F82320B04B53F847
:102A10002200FDF7EDFB0446AF4801682046FDF7B4
:102A20005FFD3DD2A94AA84B1B6852F82320A84B52
:102A300053F82210A54AA44B1B6852F82320A54B3B
:102A400053F82200FDF7D4FB0446A3480168204652
:102A5000FDF746FD24D29D489B49096810F82100E6
:102A60000830012181409D480088884300B29B497D
:102A7000088096489449096810F821100120884080
:102A800096490988814308B2944908804FF07E50E6
:102A90008E498D4A126851F82210914A42F821005D
:102AA0008E49098888B2FFF74AFE87480068401CB3
:102AB00085490860844800680328FFF61BAF00E1E1
:102AC000002081490860F7E083480068FDF7C0FCFA
:102AD0008046844A844BFDF791FB04460D467B4AB1
:102AE000794B1B6852F82320794B53F82210774A10
:102AF000754B1B6852F82320764B53F82200FDF7E4
:102B000077FB8046FDF7A4FC064622462B46FDF7E0
:102B1000B3FC25D26D486C49096810F821000830D3
:102B2000012101FA00F06D490988084300B26B49A0
:102B3000088066486449096810F82110012088401F
:102B400066490988814308B26449088000205F49CA
:102B50005D4A126851F82210614A42F82100A1E052
:102B60005D480068FDF774FC06465E4A5E4BFDF763
:102B700045FB04460D46554A534B1B6852F823202B
:102B8000544B53F82210514A4F4B1B6852F82320E4
:102B90004F4B53F82200FDF72BFB0646FDF758FC80
:102BA000804622462B46FDF767FC24D2474846491B
:102BB000096810F821000830012181404748008849
:102BC000884300B24549088040483F49096810F8E9
:102BD00021100120884041490988084300B23F493B
:102BE000088000203949384A126851F822103C4ABE
:102BF00042F8210056E0354A334B1B6852F8232037
:102C0000344B53F82210314A2F4B1B6852F82320C3
:102C10002F4B53F82200FDF7EBFA04462E480168CB
:102C20002046FDF75DFC3DD2284A274B1B6852F831
:102C30002320274B53F82210244A234B1B6852F8B9
:102C40002320244B53F82200FDF7D2FA04462248F1
:102C500001682046FDF744FC24D21C481A49096843
:102C600010F821000830012181401C480088884369
:102C700000B21A49088015481349096810F8211054
:102C80000120884015490988814308B2134908800A
:102C90004FF07E500D490C4A126851F82210104A2C
:102CA00042F821000D49098888B2FFF748FD06481F
:102CB0000068401C04490860034800680328FFF6C8
:102CC00003AFBDE8F087000050000020380100206D
:102CD000D0020020B00200201C0100205001002082
:102CE00030030020CDCCCCCCCCCCF43FADF5427D34
:102CF00000BF4FF47A70C1904FF43D726E4904A842
:102D0000FDF712FA0A214820FEF79EFB4FF4E1304E
:102D100000F0ECF843F2AF6146F2A710FEF724FC96
:102D2000FFF7C6FD0020FFF7E1FC0020FFF707FDDD
:102D3000FFF7F0FBFEF736F9FDF730FF4FF47A703E
:102D4000FFF780FC4FF47A70FFF77CFCFEF7CCF9BC
:102D500002E00A20FFF776FC5848008800F40040A3
:102D60000028F6D0002055490880FEF7BDF95449E7
:102D7000544A126851F82200FDF76AFB04460D46DA
:102D80004F49514A126851F82200FDF761FB06468F
:102D90000F464B494D4A126851F82200FDF758FB87
:102DA000804642460B464AA0CDE90067CDE9024580
:102DB000FEF790FE4FF0000A75E04FF0010B0AEBB2
:102DC0004A0004A951F820004649404A126841F8D7
:102DD00022000AEB4A0004A901EB80004068414947
:102DE000394A126841F822000AEB4A0004A901EBB3
:102DF000800080683B49334A126841F822004EE067
:102E0000FEF772F95846FFF76BFD4FF0000B36499D
:102E10002E4A126851F822004FF07E51FDF760FBF8
:102E20003DD13149284A126851F822004FF07E51B5
:102E3000FDF756FB33D12C49224A126851F8220083
:102E40004FF07E51FDF74CFB29D1FEF74DF9C199AA
:102E500088B2FFF7F7FB1A491A4A126851F82200A4
:102E6000FDF7F6FA04460D461549174A126851F85F
:102E70002200FDF7EDFA06460F461149134A126883
:102E800051F82200FDF7E4FA804642460B4610A0B6
:102E9000CDE90067CDE90245FEF71CFE00E0AFE793
:102EA00000BF0AF1010ABAF13F0F86DB02E064209D
:102EB000FFF7C8FBFBE700008C2F0008780100201B
:102EC000B00200204C0100204801002044010020F5
:102ED0003120252E336620252E336620252E33669D
:102EE0000D0A0000D00200203003002010B586B08B
:102EF0000446012144F20400FEF760F94FF400702B
:102F0000ADF8140003208DF8160018208DF8170076
:102F100005A91C48FDF744FF4FF48060ADF814008C
:102F200004208DF8170005A91648FDF739FF252064
:102F30008DF8000000208DF8010001208DF80200BE
:102F40008DF803006846FEF78DF801940020ADF877
:102F50000800ADF80A00ADF80C00ADF810000C2028
:102F6000ADF80E0001A90848FEF722FD012240F24B
:102F700025510548FEF7F7FC01210348FEF7BDFC8B
:102F800006B010BD0008014000380140BB3A93BEB6
:102F9000C47CA0BFC5FE3BBE940A93BF6233B8BFDA
:102FA000998795BE568117C09B1515C0780612BF2C
:102FB0005D445AC0A2C14DC04BE8A4BFE1418CC0E2
:102FC000F75D7AC04ED005C09874A9C0297A8CC02C
:102FD0005A2B31C05589C2C077B296C0854154C0C2
:102FE0003F95D6C0BD9A9DC0B91A70C0BE68E6C0F4
:102FF0008CF7A0C0472382C06446F3C02AA19FC0BB
:10300000738D88C0E616FEC08E1599C0D5138CC08E
:10301000C3B103C1E1D58DC0AF9C8DC038BE07C11F
:10302000FED27DC0FAC08DC082470BC1BB9B5AC087
:1030300006B68CC0865A0EC1016A33C0377C8AC07E
:10304000E80211C10A2209C0221D87C08B5213C198
:1030500080FAB8BF22CC82C06F6415C1B12A39BFD3
:1030600023C47BC07F5A17C104F2053C7A8B71C020
:10307000865819C100143C3F7FA767C0C17E1BC1A1
:10308000BEE9B83FF49D5EC0E2E51DC1BC720840D8
:10309000F5B556C080EB14C1DC1D114027DC76C0AD
:1030A00084D10CC15C57C63F23F9A1C04D360BC17A
:1030B000EDA8183D3B66CBC05F260EC1DF91E5BF92
:1030C000637CF0C002B111C120A55DC073EA08C1E4
:1030D000DD2E13C1ECDF96C0282D17C1547011C12D
:1030E0004B76AFC0C52622C1C7400CC1E283BAC02F
:1030F000639B29C1300B04C15023BCC057E12DC1D3
:103100004A19F3C0BDA4B8C055792FC1ED25DBC065
:103110004FFBB2C057CF2EC14CA3C1C09036ACC03C
:10312000E83D2CC14FAAA7C0F305A4C0B62928C109
:1031300015128EC0FEB299C0EC0E23C1F7FC6AC016
:10314000F8F58CC0C3781DC110BA3CC0C89F7CC0C4
:10315000F0E917C1C4B211C08BBE5DC013C212C169
:103160005D79D3BF67C73FC0FD2E0EC187B688BF4C
:10317000F18124C080320AC1020804BF1F750CC04F
:1031800099B806C12032543CB8A5EDBF15B203C1B1
:103190004DF34BBEFEC406C070B3F0C0245499BFBB
:1031A000541648C0E1E2D9C00E8624C04BA197C096
:1031B000A7DACEC0D0FA76C0722BD2C05F54D2C08C
:1031C000B7FD97C0348203C1F96FDCC09F45A4C02E
:1031D0008F0215C132A9E0C0D28BA2C01B8D1AC1CB
:1031E000BF22D7C0EEF898C0E12516C19AC9C0C069
:1031F00051F88DC05DFB0CC16B51A4C00E7684C02C
:10320000E28C03C1E8CA88C0C32977C0CC1DF7C0CF
:10321000CE7463C0AB6D62C041D6E8C0BFAA3CC0EB
:10322000E45C48C07283D9C0682A17C00A4F29C01D
:10323000D43AC7C05B09DCBF93E906C0DBB0B1C0BC
:1032400000F77FBF9EE5C4BFD89299C0E37767BE01
:10325000711470BFF5047FC0EA53133FC3E796BEF5
:103260003A3547C06B84B23F1802CF3E3F150BC0C2
:10327000C2740F403A4D953F977593BF7AED484021
:10328000A03200080000002094010000540800084B
:10329000FC32000894010020E4120000041B000826
:1032A000001051FFAA52FFAA67FFAA60FFAA61FFA0
:1032B000AA620A316404413201320232033204321A
:1032C000053206320732083209320A320B0A370C4D
:1032D000340B1AC842042DCDCCCC3D541A4C4D6948
:1032E00098C129682960E90C012F2D01020304040B
:0C32F00010090607080902040608000087
:04000005080000ED02
:00000001FF
